{
  "_format": "hh-sol-artifact-1",
  "contractName": "ExchangeNFT",
  "sourceName": "contracts/ExchangeNFT.sol",
  "abi": [
    {
      "anonymous": false,
      "inputs": [
        {
          "indexed": true,
          "internalType": "address",
          "name": "previousOwner",
          "type": "address"
        },
        {
          "indexed": true,
          "internalType": "address",
          "name": "newOwner",
          "type": "address"
        }
      ],
      "name": "OwnershipTransferred",
      "type": "event"
    },
    {
      "anonymous": false,
      "inputs": [
        {
          "indexed": false,
          "internalType": "address",
          "name": "account",
          "type": "address"
        }
      ],
      "name": "Paused",
      "type": "event"
    },
    {
      "anonymous": false,
      "inputs": [
        {
          "indexed": true,
          "internalType": "address",
          "name": "nftContract",
          "type": "address"
        },
        {
          "indexed": true,
          "internalType": "address",
          "name": "owner",
          "type": "address"
        },
        {
          "indexed": false,
          "internalType": "uint256",
          "name": "tokenId",
          "type": "uint256"
        }
      ],
      "name": "UnBox",
      "type": "event"
    },
    {
      "anonymous": false,
      "inputs": [
        {
          "indexed": false,
          "internalType": "address",
          "name": "account",
          "type": "address"
        }
      ],
      "name": "Unpaused",
      "type": "event"
    },
    {
      "inputs": [],
      "name": "getBlockTime",
      "outputs": [
        {
          "internalType": "uint256",
          "name": "",
          "type": "uint256"
        }
      ],
      "stateMutability": "view",
      "type": "function"
    },
    {
      "inputs": [],
      "name": "isOpen",
      "outputs": [
        {
          "internalType": "bool",
          "name": "",
          "type": "bool"
        }
      ],
      "stateMutability": "view",
      "type": "function"
    },
    {
      "inputs": [
        {
          "internalType": "address",
          "name": "",
          "type": "address"
        },
        {
          "internalType": "address",
          "name": "",
          "type": "address"
        },
        {
          "internalType": "uint256",
          "name": "",
          "type": "uint256"
        },
        {
          "internalType": "bytes",
          "name": "",
          "type": "bytes"
        }
      ],
      "name": "onERC721Received",
      "outputs": [
        {
          "internalType": "bytes4",
          "name": "",
          "type": "bytes4"
        }
      ],
      "stateMutability": "nonpayable",
      "type": "function"
    },
    {
      "inputs": [],
      "name": "openTime",
      "outputs": [
        {
          "internalType": "uint256",
          "name": "",
          "type": "uint256"
        }
      ],
      "stateMutability": "view",
      "type": "function"
    },
    {
      "inputs": [],
      "name": "owner",
      "outputs": [
        {
          "internalType": "address",
          "name": "",
          "type": "address"
        }
      ],
      "stateMutability": "view",
      "type": "function"
    },
    {
      "inputs": [],
      "name": "pause",
      "outputs": [],
      "stateMutability": "nonpayable",
      "type": "function"
    },
    {
      "inputs": [],
      "name": "paused",
      "outputs": [
        {
          "internalType": "bool",
          "name": "",
          "type": "bool"
        }
      ],
      "stateMutability": "view",
      "type": "function"
    },
    {
      "inputs": [],
      "name": "renounceOwnership",
      "outputs": [],
      "stateMutability": "nonpayable",
      "type": "function"
    },
    {
      "inputs": [
        {
          "internalType": "address",
          "name": "nftContract",
          "type": "address"
        },
        {
          "internalType": "address",
          "name": "nftBox",
          "type": "address"
        }
      ],
      "name": "setContractChange",
      "outputs": [],
      "stateMutability": "nonpayable",
      "type": "function"
    },
    {
      "inputs": [
        {
          "internalType": "uint256",
          "name": "_openTime",
          "type": "uint256"
        }
      ],
      "name": "setOpentime",
      "outputs": [],
      "stateMutability": "nonpayable",
      "type": "function"
    },
    {
      "inputs": [
        {
          "internalType": "address",
          "name": "newOwner",
          "type": "address"
        }
      ],
      "name": "transferOwnership",
      "outputs": [],
      "stateMutability": "nonpayable",
      "type": "function"
    },
    {
      "inputs": [
        {
          "internalType": "address",
          "name": "nftContract",
          "type": "address"
        },
        {
          "internalType": "uint256",
          "name": "tokenId",
          "type": "uint256"
        }
      ],
      "name": "unPack",
      "outputs": [],
      "stateMutability": "nonpayable",
      "type": "function"
    },
    {
      "inputs": [],
      "name": "unpause",
      "outputs": [],
      "stateMutability": "nonpayable",
      "type": "function"
    }
  ],
  "bytecode": "0x6080604052600060025534801561001557600080fd5b5061001f33610031565b6000805460ff60a01b19169055610081565b600080546001600160a01b038381166001600160a01b0319831681178455604051919092169283917f8be0079c531659141344cd1fd0a4f28419497f9722a3daafe3b4186f6b6457e09190a35050565b610bb8806100906000396000f3fe608060405234801561001057600080fd5b50600436106100cf5760003560e01c806387ceff091161008c578063b425688811610066578063b425688814610190578063bbaf494b14610199578063d0c0f7f1146101ac578063f2fde38b146101bf57600080fd5b806387ceff09146101525780638da5cb5b14610162578063a60ce05f1461017d57600080fd5b8063150b7a02146100d45780633f4ba83a1461011057806347535d7b1461011a5780635c975abb14610130578063715018a6146101425780638456cb591461014a575b600080fd5b6100f26100e2366004610972565b630a85bd0160e11b949350505050565b6040516001600160e01b031990911681526020015b60405180910390f35b6101186101d2565b005b60025442115b6040519015158152602001610107565b600054600160a01b900460ff16610120565b61011861020f565b610118610243565b425b604051908152602001610107565b6000546040516001600160a01b039091168152602001610107565b61011861018b366004610a7e565b610275565b61015460025481565b6101186101a7366004610939565b6102a4565b6101186101ba366004610a52565b6102fc565b6101186101cd3660046108ff565b6106d0565b6000546001600160a01b031633146102055760405162461bcd60e51b81526004016101fc90610ada565b60405180910390fd5b61020d61076b565b565b6000546001600160a01b031633146102395760405162461bcd60e51b81526004016101fc90610ada565b61020d6000610808565b6000546001600160a01b0316331461026d5760405162461bcd60e51b81526004016101fc90610ada565b61020d610858565b6000546001600160a01b0316331461029f5760405162461bcd60e51b81526004016101fc90610ada565b600255565b6000546001600160a01b031633146102ce5760405162461bcd60e51b81526004016101fc90610ada565b6001600160a01b03918216600090815260016020526040902080546001600160a01b03191691909216179055565b600254421161034d5760405162461bcd60e51b815260206004820152601e60248201527f45786368616e67654e46543a204e6f74207965742065786368616e67652e000060448201526064016101fc565b600054600160a01b900460ff161561039a5760405162461bcd60e51b815260206004820152601060248201526f14185d5cd8589b194e881c185d5cd95960821b60448201526064016101fc565b6001600160a01b0382811660009081526001602052604090205416336040516331a9108f60e11b8152600481018490526001600160a01b0391821691831690636352211e9060240160206040518083038186803b1580156103fa57600080fd5b505afa15801561040e573d6000803e3d6000fd5b505050506040513d601f19601f82011682018060405250810190610432919061091c565b6001600160a01b03161461049f5760405162461bcd60e51b815260206004820152602e60248201527f45786368616e67654e46543a20596f7520617265206e6f7420746865206f776e60448201526d6572206f6620546f6b656e49642160901b60648201526084016101fc565b600083905060006105aa600161059e856001600160a01b031663738e72186040518163ffffffff1660e01b815260040160206040518083038186803b1580156104e757600080fd5b505afa1580156104fb573d6000803e3d6000fd5b505050506040513d601f19601f8201168201806040525081019061051f9190610ab0565b67ffffffffffffffff166105a488886001600160a01b0316632a3dd1096040518163ffffffff1660e01b815260040160206040518083038186803b15801561056657600080fd5b505afa15801561057a573d6000803e3d6000fd5b505050506040513d601f19601f8201168201806040525081019061059e9190610a97565b906108e0565b906108f3565b90506001600160a01b03821663449a52f8336040516001600160e01b031960e084901b1681526001600160a01b03909116600482015260248101849052604401600060405180830381600087803b15801561060457600080fd5b505af1158015610618573d6000803e3d6000fd5b5050604051630852cd8d60e31b8152600481018790526001600160a01b03861692506342966c689150602401600060405180830381600087803b15801561065e57600080fd5b505af1158015610672573d6000803e3d6000fd5b5050505061067d3390565b6001600160a01b0316856001600160a01b03167fc60b2f4ad603cb17d49e5874b6d8be35e63573c416a5df6de0981391ad98c9cc836040516106c191815260200190565b60405180910390a35050505050565b6000546001600160a01b031633146106fa5760405162461bcd60e51b81526004016101fc90610ada565b6001600160a01b03811661075f5760405162461bcd60e51b815260206004820152602660248201527f4f776e61626c653a206e6577206f776e657220697320746865207a65726f206160448201526564647265737360d01b60648201526084016101fc565b61076881610808565b50565b600054600160a01b900460ff166107bb5760405162461bcd60e51b815260206004820152601460248201527314185d5cd8589b194e881b9bdd081c185d5cd95960621b60448201526064016101fc565b6000805460ff60a01b191690557f5db9ee0a495bf2e6ff9c91a7834c1ba4fdd244a5e8aa4e537bd38aeae4b073aa335b6040516001600160a01b03909116815260200160405180910390a1565b600080546001600160a01b038381166001600160a01b0319831681178455604051919092169283917f8be0079c531659141344cd1fd0a4f28419497f9722a3daafe3b4186f6b6457e09190a35050565b600054600160a01b900460ff16156108a55760405162461bcd60e51b815260206004820152601060248201526f14185d5cd8589b194e881c185d5cd95960821b60448201526064016101fc565b6000805460ff60a01b1916600160a01b1790557f62e78cea01bee320cd4e420270b5ea74000d11b0c9f74754ebdbfc544b05a2586107eb3390565b60006108ec8284610b0f565b9392505050565b60006108ec8284610b35565b60006020828403121561091157600080fd5b81356108ec81610b6d565b60006020828403121561092e57600080fd5b81516108ec81610b6d565b6000806040838503121561094c57600080fd5b823561095781610b6d565b9150602083013561096781610b6d565b809150509250929050565b6000806000806080858703121561098857600080fd5b843561099381610b6d565b935060208501356109a381610b6d565b925060408501359150606085013567ffffffffffffffff808211156109c757600080fd5b818701915087601f8301126109db57600080fd5b8135818111156109ed576109ed610b57565b604051601f8201601f19908116603f01168101908382118183101715610a1557610a15610b57565b816040528281528a6020848701011115610a2e57600080fd5b82602086016020830137600060208483010152809550505050505092959194509250565b60008060408385031215610a6557600080fd5b8235610a7081610b6d565b946020939093013593505050565b600060208284031215610a9057600080fd5b5035919050565b600060208284031215610aa957600080fd5b5051919050565b600060208284031215610ac257600080fd5b815167ffffffffffffffff811681146108ec57600080fd5b6020808252818101527f4f776e61626c653a2063616c6c6572206973206e6f7420746865206f776e6572604082015260600190565b60008219821115610b3057634e487b7160e01b600052601160045260246000fd5b500190565b600082610b5257634e487b7160e01b600052601260045260246000fd5b500690565b634e487b7160e01b600052604160045260246000fd5b6001600160a01b038116811461076857600080fdfea264697066735822122013f56d7e0ae4c72f8d51c5db7e664afa478b5fddfb80fdfaabb4f51a0faa000c64736f6c63430008060033",
  "linkReferences": {},
  "deployedLinkReferences": {}
}