{
  "_format": "hh-sol-artifact-1",
  "contractName": "SaruBox",
  "sourceName": "contracts/SaruBox.sol",
  "abi": [
    {
      "inputs": [],
      "stateMutability": "nonpayable",
      "type": "constructor"
    },
    {
      "anonymous": false,
      "inputs": [
        {
          "indexed": true,
          "internalType": "address",
          "name": "owner",
          "type": "address"
        },
        {
          "indexed": true,
          "internalType": "address",
          "name": "approved",
          "type": "address"
        },
        {
          "indexed": true,
          "internalType": "uint256",
          "name": "tokenId",
          "type": "uint256"
        }
      ],
      "name": "Approval",
      "type": "event"
    },
    {
      "anonymous": false,
      "inputs": [
        {
          "indexed": true,
          "internalType": "address",
          "name": "owner",
          "type": "address"
        },
        {
          "indexed": true,
          "internalType": "address",
          "name": "operator",
          "type": "address"
        },
        {
          "indexed": false,
          "internalType": "bool",
          "name": "approved",
          "type": "bool"
        }
      ],
      "name": "ApprovalForAll",
      "type": "event"
    },
    {
      "anonymous": false,
      "inputs": [
        {
          "indexed": true,
          "internalType": "address",
          "name": "previousOwner",
          "type": "address"
        },
        {
          "indexed": true,
          "internalType": "address",
          "name": "newOwner",
          "type": "address"
        }
      ],
      "name": "OwnershipTransferred",
      "type": "event"
    },
    {
      "anonymous": false,
      "inputs": [
        {
          "indexed": false,
          "internalType": "address",
          "name": "account",
          "type": "address"
        }
      ],
      "name": "Paused",
      "type": "event"
    },
    {
      "anonymous": false,
      "inputs": [
        {
          "indexed": true,
          "internalType": "address",
          "name": "from",
          "type": "address"
        },
        {
          "indexed": true,
          "internalType": "address",
          "name": "to",
          "type": "address"
        },
        {
          "indexed": true,
          "internalType": "uint256",
          "name": "tokenId",
          "type": "uint256"
        }
      ],
      "name": "Transfer",
      "type": "event"
    },
    {
      "anonymous": false,
      "inputs": [
        {
          "indexed": false,
          "internalType": "address",
          "name": "account",
          "type": "address"
        }
      ],
      "name": "Unpaused",
      "type": "event"
    },
    {
      "anonymous": false,
      "inputs": [
        {
          "indexed": false,
          "internalType": "uint256",
          "name": "ID",
          "type": "uint256"
        },
        {
          "indexed": false,
          "internalType": "uint256",
          "name": "amount",
          "type": "uint256"
        },
        {
          "indexed": false,
          "internalType": "address",
          "name": "to",
          "type": "address"
        },
        {
          "indexed": false,
          "internalType": "uint256",
          "name": "unitPrice",
          "type": "uint256"
        }
      ],
      "name": "mintRecord",
      "type": "event"
    },
    {
      "inputs": [],
      "name": "MAX_GENESIS_SUPPLY",
      "outputs": [
        {
          "internalType": "uint64",
          "name": "",
          "type": "uint64"
        }
      ],
      "stateMutability": "view",
      "type": "function"
    },
    {
      "inputs": [
        {
          "internalType": "address",
          "name": "to",
          "type": "address"
        },
        {
          "internalType": "uint256",
          "name": "tokenId",
          "type": "uint256"
        }
      ],
      "name": "approve",
      "outputs": [],
      "stateMutability": "nonpayable",
      "type": "function"
    },
    {
      "inputs": [
        {
          "internalType": "address",
          "name": "owner",
          "type": "address"
        }
      ],
      "name": "balanceOf",
      "outputs": [
        {
          "internalType": "uint256",
          "name": "",
          "type": "uint256"
        }
      ],
      "stateMutability": "view",
      "type": "function"
    },
    {
      "inputs": [],
      "name": "baseURI",
      "outputs": [
        {
          "internalType": "string",
          "name": "",
          "type": "string"
        }
      ],
      "stateMutability": "view",
      "type": "function"
    },
    {
      "inputs": [
        {
          "internalType": "uint256",
          "name": "tokenId",
          "type": "uint256"
        }
      ],
      "name": "burn",
      "outputs": [],
      "stateMutability": "nonpayable",
      "type": "function"
    },
    {
      "inputs": [],
      "name": "currentId",
      "outputs": [
        {
          "internalType": "uint256",
          "name": "",
          "type": "uint256"
        }
      ],
      "stateMutability": "view",
      "type": "function"
    },
    {
      "inputs": [],
      "name": "genesisMarket",
      "outputs": [
        {
          "internalType": "address",
          "name": "",
          "type": "address"
        }
      ],
      "stateMutability": "view",
      "type": "function"
    },
    {
      "inputs": [],
      "name": "genesisMinter",
      "outputs": [
        {
          "internalType": "address",
          "name": "",
          "type": "address"
        }
      ],
      "stateMutability": "view",
      "type": "function"
    },
    {
      "inputs": [
        {
          "internalType": "uint256",
          "name": "tokenId",
          "type": "uint256"
        }
      ],
      "name": "getApproved",
      "outputs": [
        {
          "internalType": "address",
          "name": "",
          "type": "address"
        }
      ],
      "stateMutability": "view",
      "type": "function"
    },
    {
      "inputs": [
        {
          "internalType": "address",
          "name": "owner",
          "type": "address"
        },
        {
          "internalType": "address",
          "name": "operator",
          "type": "address"
        }
      ],
      "name": "isApprovedForAll",
      "outputs": [
        {
          "internalType": "bool",
          "name": "",
          "type": "bool"
        }
      ],
      "stateMutability": "view",
      "type": "function"
    },
    {
      "inputs": [
        {
          "internalType": "uint256",
          "name": "amount",
          "type": "uint256"
        },
        {
          "internalType": "address",
          "name": "to",
          "type": "address"
        },
        {
          "internalType": "uint256",
          "name": "unitPrice",
          "type": "uint256"
        }
      ],
      "name": "mintGenesis",
      "outputs": [],
      "stateMutability": "nonpayable",
      "type": "function"
    },
    {
      "inputs": [
        {
          "internalType": "address",
          "name": "to",
          "type": "address"
        },
        {
          "internalType": "uint256",
          "name": "tokenId",
          "type": "uint256"
        }
      ],
      "name": "mintTo",
      "outputs": [],
      "stateMutability": "nonpayable",
      "type": "function"
    },
    {
      "inputs": [],
      "name": "name",
      "outputs": [
        {
          "internalType": "string",
          "name": "",
          "type": "string"
        }
      ],
      "stateMutability": "view",
      "type": "function"
    },
    {
      "inputs": [],
      "name": "owner",
      "outputs": [
        {
          "internalType": "address",
          "name": "",
          "type": "address"
        }
      ],
      "stateMutability": "view",
      "type": "function"
    },
    {
      "inputs": [
        {
          "internalType": "uint256",
          "name": "tokenId",
          "type": "uint256"
        }
      ],
      "name": "ownerOf",
      "outputs": [
        {
          "internalType": "address",
          "name": "",
          "type": "address"
        }
      ],
      "stateMutability": "view",
      "type": "function"
    },
    {
      "inputs": [],
      "name": "pause",
      "outputs": [],
      "stateMutability": "nonpayable",
      "type": "function"
    },
    {
      "inputs": [],
      "name": "paused",
      "outputs": [
        {
          "internalType": "bool",
          "name": "",
          "type": "bool"
        }
      ],
      "stateMutability": "view",
      "type": "function"
    },
    {
      "inputs": [
        {
          "internalType": "address",
          "name": "sender",
          "type": "address"
        }
      ],
      "name": "randomIndex",
      "outputs": [],
      "stateMutability": "nonpayable",
      "type": "function"
    },
    {
      "inputs": [],
      "name": "randomizedStartIndex",
      "outputs": [
        {
          "internalType": "uint256",
          "name": "",
          "type": "uint256"
        }
      ],
      "stateMutability": "view",
      "type": "function"
    },
    {
      "inputs": [],
      "name": "renounceOwnership",
      "outputs": [],
      "stateMutability": "nonpayable",
      "type": "function"
    },
    {
      "inputs": [
        {
          "internalType": "address",
          "name": "from",
          "type": "address"
        },
        {
          "internalType": "address",
          "name": "to",
          "type": "address"
        },
        {
          "internalType": "uint256",
          "name": "tokenId",
          "type": "uint256"
        }
      ],
      "name": "safeTransferFrom",
      "outputs": [],
      "stateMutability": "nonpayable",
      "type": "function"
    },
    {
      "inputs": [
        {
          "internalType": "address",
          "name": "from",
          "type": "address"
        },
        {
          "internalType": "address",
          "name": "to",
          "type": "address"
        },
        {
          "internalType": "uint256",
          "name": "tokenId",
          "type": "uint256"
        },
        {
          "internalType": "bytes",
          "name": "_data",
          "type": "bytes"
        }
      ],
      "name": "safeTransferFrom",
      "outputs": [],
      "stateMutability": "nonpayable",
      "type": "function"
    },
    {
      "inputs": [
        {
          "internalType": "address",
          "name": "operator",
          "type": "address"
        },
        {
          "internalType": "bool",
          "name": "approved",
          "type": "bool"
        }
      ],
      "name": "setApprovalForAll",
      "outputs": [],
      "stateMutability": "nonpayable",
      "type": "function"
    },
    {
      "inputs": [
        {
          "internalType": "string",
          "name": "_uri",
          "type": "string"
        }
      ],
      "name": "setBaseURI",
      "outputs": [],
      "stateMutability": "nonpayable",
      "type": "function"
    },
    {
      "inputs": [
        {
          "internalType": "address",
          "name": "newMarket",
          "type": "address"
        }
      ],
      "name": "setGenesisMarket",
      "outputs": [],
      "stateMutability": "nonpayable",
      "type": "function"
    },
    {
      "inputs": [
        {
          "internalType": "address",
          "name": "newMinter",
          "type": "address"
        }
      ],
      "name": "setGenesisMinter",
      "outputs": [],
      "stateMutability": "nonpayable",
      "type": "function"
    },
    {
      "inputs": [
        {
          "internalType": "bytes4",
          "name": "interfaceId",
          "type": "bytes4"
        }
      ],
      "name": "supportsInterface",
      "outputs": [
        {
          "internalType": "bool",
          "name": "",
          "type": "bool"
        }
      ],
      "stateMutability": "view",
      "type": "function"
    },
    {
      "inputs": [],
      "name": "symbol",
      "outputs": [
        {
          "internalType": "string",
          "name": "",
          "type": "string"
        }
      ],
      "stateMutability": "view",
      "type": "function"
    },
    {
      "inputs": [
        {
          "internalType": "uint256",
          "name": "index",
          "type": "uint256"
        }
      ],
      "name": "tokenByIndex",
      "outputs": [
        {
          "internalType": "uint256",
          "name": "",
          "type": "uint256"
        }
      ],
      "stateMutability": "view",
      "type": "function"
    },
    {
      "inputs": [
        {
          "internalType": "address",
          "name": "owner",
          "type": "address"
        },
        {
          "internalType": "uint256",
          "name": "index",
          "type": "uint256"
        }
      ],
      "name": "tokenOfOwnerByIndex",
      "outputs": [
        {
          "internalType": "uint256",
          "name": "",
          "type": "uint256"
        }
      ],
      "stateMutability": "view",
      "type": "function"
    },
    {
      "inputs": [
        {
          "internalType": "uint256",
          "name": "tokenId",
          "type": "uint256"
        }
      ],
      "name": "tokenURI",
      "outputs": [
        {
          "internalType": "string",
          "name": "",
          "type": "string"
        }
      ],
      "stateMutability": "view",
      "type": "function"
    },
    {
      "inputs": [],
      "name": "totalSupply",
      "outputs": [
        {
          "internalType": "uint256",
          "name": "",
          "type": "uint256"
        }
      ],
      "stateMutability": "view",
      "type": "function"
    },
    {
      "inputs": [
        {
          "internalType": "address",
          "name": "from",
          "type": "address"
        },
        {
          "internalType": "address",
          "name": "to",
          "type": "address"
        },
        {
          "internalType": "uint256",
          "name": "tokenId",
          "type": "uint256"
        }
      ],
      "name": "transferFrom",
      "outputs": [],
      "stateMutability": "nonpayable",
      "type": "function"
    },
    {
      "inputs": [
        {
          "internalType": "address",
          "name": "newOwner",
          "type": "address"
        }
      ],
      "name": "transferOwnership",
      "outputs": [],
      "stateMutability": "nonpayable",
      "type": "function"
    },
    {
      "inputs": [],
      "name": "unpause",
      "outputs": [],
      "stateMutability": "nonpayable",
      "type": "function"
    }
  ],
  "bytecode": "0x6080604052600a8054600160a81b600160e81b03191661027160ac1b1790553480156200002b57600080fd5b5060408051808201825260088152670a6c2e4ea4084def60c31b6020808301918252835180850190945260078452660a682a4aa849eb60cb1b908401528151919291839183916200007f916000916200010f565b508051620000959060019060208401906200010f565b5050600a805460ff1916905550620000ad33620000b5565b5050620001f2565b600a80546001600160a01b03838116610100818102610100600160a81b031985161790945560405193909204169182907f8be0079c531659141344cd1fd0a4f28419497f9722a3daafe3b4186f6b6457e090600090a35050565b8280546200011d90620001b5565b90600052602060002090601f0160209004810192826200014157600085556200018c565b82601f106200015c57805160ff19168380011785556200018c565b828001600101855582156200018c579182015b828111156200018c5782518255916020019190600101906200016f565b506200019a9291506200019e565b5090565b5b808211156200019a57600081556001016200019f565b600181811c90821680620001ca57607f821691505b60208210811415620001ec57634e487b7160e01b600052602260045260246000fd5b50919050565b61249780620002026000396000f3fe608060405234801561001057600080fd5b50600436106102115760003560e01c80635ac30905116101255780638da5cb5b116100ad578063c87b56dd1161007c578063c87b56dd1461045b578063e00dd1611461046e578063e985e9c514610477578063f2fde38b146104b3578063fbc98597146104c657600080fd5b80638da5cb5b1461041757806395d89b411461042d578063a22cb46514610435578063b88d4fde1461044857600080fd5b806370a08231116100f457806370a08231146103ad578063715018a6146103c0578063738e7218146103c85780638052017d146103fc5780638456cb591461040f57600080fd5b80635ac30905146103745780635c975abb146103875780636352211e146103925780636c0360eb146103a557600080fd5b80632f745c59116101a8578063449a52f811610177578063449a52f8146103155780634f6ccce71461032857806351dd47d11461033b5780635237af711461034e57806355f804b31461036157600080fd5b80632f745c59146102d45780633f4ba83a146102e757806342842e0e146102ef57806342966c681461030257600080fd5b80631351440a116101e45780631351440a1461029357806318160ddd146102a657806323b872dd146102b85780632a3dd109146102cb57600080fd5b806301ffc9a71461021657806306fdde031461023e578063081812fc14610253578063095ea7b31461027e575b600080fd5b610229610224366004612050565b6104d9565b60405190151581526020015b60405180910390f35b6102466104ea565b60405161023591906121d2565b6102666102613660046120fc565b61057c565b6040516001600160a01b039091168152602001610235565b61029161028c366004612026565b610616565b005b600b54610266906001600160a01b031681565b6008545b604051908152602001610235565b6102916102c6366004611ed2565b61072c565b6102aa600d5481565b6102aa6102e2366004612026565b61075e565b6102916107f4565b6102916102fd366004611ed2565b61082e565b6102916103103660046120fc565b610849565b610291610323366004612026565b6108c3565b6102aa6103363660046120fc565b610910565b610291610349366004612115565b6109a3565b600c54610266906001600160a01b031681565b61029161036f36600461208a565b6109ed565b610291610382366004611e84565b610a29565b600a5460ff16610229565b6102666103a03660046120fc565b610ad3565b610246610b61565b6102aa6103bb366004611e84565b610bef565b610291610c76565b600a546103e390600160a81b900467ffffffffffffffff1681565b60405167ffffffffffffffff9091168152602001610235565b61029161040a366004611e84565b610cb0565b610291610d02565b600a5461010090046001600160a01b0316610266565b610246610d3a565b610291610443366004611fea565b610d49565b610291610456366004611f0e565b610e0e565b6102466104693660046120fc565b610e46565b6102aa600e5481565b610229610485366004611e9f565b6001600160a01b03918216600090815260056020908152604080832093909416825291909152205460ff1690565b6102916104c1366004611e84565b610f21565b6102916104d4366004611e84565b610fbf565b60006104e482611011565b92915050565b6060600080546104f990612373565b80601f016020809104026020016040519081016040528092919081815260200182805461052590612373565b80156105725780601f1061054757610100808354040283529160200191610572565b820191906000526020600020905b81548152906001019060200180831161055557829003601f168201915b5050505050905090565b6000818152600260205260408120546001600160a01b03166105fa5760405162461bcd60e51b815260206004820152602c60248201527f4552433732313a20617070726f76656420717565727920666f72206e6f6e657860448201526b34b9ba32b73a103a37b5b2b760a11b60648201526084015b60405180910390fd5b506000908152600460205260409020546001600160a01b031690565b600061062182611036565b9050806001600160a01b0316836001600160a01b0316141561068f5760405162461bcd60e51b815260206004820152602160248201527f4552433732313a20617070726f76616c20746f2063757272656e74206f776e656044820152603960f91b60648201526084016105f1565b336001600160a01b03821614806106ab57506106ab8133610485565b61071d5760405162461bcd60e51b815260206004820152603860248201527f4552433732313a20617070726f76652063616c6c6572206973206e6f74206f7760448201527f6e6572206e6f7220617070726f76656420666f7220616c6c000000000000000060648201526084016105f1565b61072783836110ad565b505050565b610737335b8261111b565b6107535760405162461bcd60e51b81526004016105f1906122b3565b610727838383611212565b600061076983610bef565b82106107cb5760405162461bcd60e51b815260206004820152602b60248201527f455243373231456e756d657261626c653a206f776e657220696e646578206f7560448201526a74206f6620626f756e647360a81b60648201526084016105f1565b506001600160a01b03919091166000908152600660209081526040808320938352929052205490565b600a546001600160a01b036101009091041633146108245760405162461bcd60e51b81526004016105f19061227e565b61082c6113bd565b565b61072783838360405180602001604052806000815250610e0e565b61085233610731565b6108b75760405162461bcd60e51b815260206004820152603060248201527f4552433732314275726e61626c653a2063616c6c6572206973206e6f74206f7760448201526f1b995c881b9bdc88185c1c1c9bdd995960821b60648201526084016105f1565b6108c081611450565b50565b600b546001600160a01b03163314806108e65750600c546001600160a01b031633145b6109025760405162461bcd60e51b81526004016105f190612237565b61090c82826114f7565b5050565b600061091b60085490565b821061097e5760405162461bcd60e51b815260206004820152602c60248201527f455243373231456e756d657261626c653a20676c6f62616c20696e646578206f60448201526b7574206f6620626f756e647360a01b60648201526084016105f1565b600882815481106109915761099161241f565b90600052602060002001549050919050565b600b546001600160a01b03163314806109c65750600c546001600160a01b031633145b6109e25760405162461bcd60e51b81526004016105f190612237565b610727838383611511565b600a546001600160a01b03610100909104163314610a1d5760405162461bcd60e51b81526004016105f19061227e565b610727600f8383611dcf565b600b546001600160a01b0316331480610a4c5750600c546001600160a01b031633145b610a685760405162461bcd60e51b81526004016105f190612237565b610acd610ac4670de0b6b3a7640000434084604051602001610aa692919091825260601b6bffffffffffffffffffffffff1916602082015260340190565b60408051601f1981840301815291905280516020909101209061162b565b600d5490611637565b600d5550565b6000600e548211158015610ae75750600082115b610b335760405162461bcd60e51b815260206004820152601b60248201527f416d614552433732313a20696e76616c696420746f6b656e206964000000000060448201526064016105f1565b6000828152600260205260409020546001600160a01b031615610b59576104e482611036565b506000919050565b600f8054610b6e90612373565b80601f0160208091040260200160405190810160405280929190818152602001828054610b9a90612373565b8015610be75780601f10610bbc57610100808354040283529160200191610be7565b820191906000526020600020905b815481529060010190602001808311610bca57829003601f168201915b505050505081565b60006001600160a01b038216610c5a5760405162461bcd60e51b815260206004820152602a60248201527f4552433732313a2062616c616e636520717565727920666f7220746865207a65604482015269726f206164647265737360b01b60648201526084016105f1565b506001600160a01b031660009081526003602052604090205490565b600a546001600160a01b03610100909104163314610ca65760405162461bcd60e51b81526004016105f19061227e565b61082c6000611643565b600a546001600160a01b03610100909104163314610ce05760405162461bcd60e51b81526004016105f19061227e565b600c80546001600160a01b0319166001600160a01b0392909216919091179055565b600a546001600160a01b03610100909104163314610d325760405162461bcd60e51b81526004016105f19061227e565b61082c61169d565b6060600180546104f990612373565b6001600160a01b038216331415610da25760405162461bcd60e51b815260206004820152601960248201527f4552433732313a20617070726f766520746f2063616c6c65720000000000000060448201526064016105f1565b3360008181526005602090815260408083206001600160a01b03871680855290835292819020805460ff191686151590811790915590519081529192917f17307eab39ab6107e8899845ad3d59bd9653f200f220920489ca2b5937696c31910160405180910390a35050565b610e18338361111b565b610e345760405162461bcd60e51b81526004016105f1906122b3565b610e4084848484611718565b50505050565b6000818152600260205260409020546060906001600160a01b0316610ec55760405162461bcd60e51b815260206004820152602f60248201527f4552433732314d657461646174613a2055524920717565727920666f72206e6f60448201526e3732bc34b9ba32b73a103a37b5b2b760891b60648201526084016105f1565b6000610ecf61174b565b90506000815111610eef5760405180602001604052806000815250610f1a565b80610ef98461175a565b604051602001610f0a929190612166565b6040516020818303038152906040525b9392505050565b600a546001600160a01b03610100909104163314610f515760405162461bcd60e51b81526004016105f19061227e565b6001600160a01b038116610fb65760405162461bcd60e51b815260206004820152602660248201527f4f776e61626c653a206e6577206f776e657220697320746865207a65726f206160448201526564647265737360d01b60648201526084016105f1565b6108c081611643565b600a546001600160a01b03610100909104163314610fef5760405162461bcd60e51b81526004016105f19061227e565b600b80546001600160a01b0319166001600160a01b0392909216919091179055565b60006001600160e01b0319821663780e9d6360e01b14806104e457506104e482611858565b6000818152600260205260408120546001600160a01b0316806104e45760405162461bcd60e51b815260206004820152602960248201527f4552433732313a206f776e657220717565727920666f72206e6f6e657869737460448201526832b73a103a37b5b2b760b91b60648201526084016105f1565b600081815260046020526040902080546001600160a01b0319166001600160a01b03841690811790915581906110e282611036565b6001600160a01b03167f8c5be1e5ebec7d5bd14f71427d1e84f3dd0314c0f7b2291e5b200ac8c7c3b92560405160405180910390a45050565b6000818152600260205260408120546001600160a01b03166111945760405162461bcd60e51b815260206004820152602c60248201527f4552433732313a206f70657261746f7220717565727920666f72206e6f6e657860448201526b34b9ba32b73a103a37b5b2b760a11b60648201526084016105f1565b600061119f83611036565b9050806001600160a01b0316846001600160a01b031614806111da5750836001600160a01b03166111cf8461057c565b6001600160a01b0316145b8061120a57506001600160a01b0380821660009081526005602090815260408083209388168352929052205460ff165b949350505050565b826001600160a01b031661122582611036565b6001600160a01b03161461128d5760405162461bcd60e51b815260206004820152602960248201527f4552433732313a207472616e73666572206f6620746f6b656e2074686174206960448201526839903737ba1037bbb760b91b60648201526084016105f1565b6001600160a01b0382166112ef5760405162461bcd60e51b8152602060048201526024808201527f4552433732313a207472616e7366657220746f20746865207a65726f206164646044820152637265737360e01b60648201526084016105f1565b6112fa8383836118a8565b6113056000826110ad565b6001600160a01b038316600090815260036020526040812080546001929061132e908490612330565b90915550506001600160a01b038216600090815260036020526040812080546001929061135c908490612304565b909155505060008181526002602052604080822080546001600160a01b0319166001600160a01b0386811691821790925591518493918716917fddf252ad1be2c89b69c2b068fc378daa952ba7f163c4a11628f55a4df523b3ef91a4505050565b600a5460ff166114065760405162461bcd60e51b815260206004820152601460248201527314185d5cd8589b194e881b9bdd081c185d5cd95960621b60448201526064016105f1565b600a805460ff191690557f5db9ee0a495bf2e6ff9c91a7834c1ba4fdd244a5e8aa4e537bd38aeae4b073aa335b6040516001600160a01b03909116815260200160405180910390a1565b600061145b82611036565b9050611469816000846118a8565b6114746000836110ad565b6001600160a01b038116600090815260036020526040812080546001929061149d908490612330565b909155505060008281526002602052604080822080546001600160a01b0319169055518391906001600160a01b038416907fddf252ad1be2c89b69c2b068fc378daa952ba7f163c4a11628f55a4df523b3ef908390a45050565b61090c8282604051806020016040528060008152506118f9565b600e54600a54600160a81b900467ffffffffffffffff166115328583612304565b111561158e5760405162461bcd60e51b815260206004820152602560248201527f416d614552433732313a206d61782067656e6573697320737570706c792072656044820152641858da195960da1b60648201526084016105f1565b83600e60008282546115a09190612304565b90915550600190505b8481116115d5576115c3846115be8385612304565b6114f7565b806115cd816123ae565b9150506115a9565b5060408051828152602081018690526001600160a01b038516818301526060810184905290517fe444122ce9408b2d1f063a24b5ad90568b5c1f37efa30b292776d8422e4d20a79181900360800190a150505050565b6000610f1a82846123c9565b6000610f1a8284612304565b600a80546001600160a01b03838116610100818102610100600160a81b031985161790945560405193909204169182907f8be0079c531659141344cd1fd0a4f28419497f9722a3daafe3b4186f6b6457e090600090a35050565b600a5460ff16156116e35760405162461bcd60e51b815260206004820152601060248201526f14185d5cd8589b194e881c185d5cd95960821b60448201526064016105f1565b600a805460ff191660011790557f62e78cea01bee320cd4e420270b5ea74000d11b0c9f74754ebdbfc544b05a2586114333390565b611723848484611212565b61172f8484848461192c565b610e405760405162461bcd60e51b81526004016105f1906121e5565b6060600f80546104f990612373565b60608161177e5750506040805180820190915260018152600360fc1b602082015290565b8160005b81156117a85780611792816123ae565b91506117a19050600a8361231c565b9150611782565b60008167ffffffffffffffff8111156117c3576117c3612435565b6040519080825280601f01601f1916602001820160405280156117ed576020820181803683370190505b5090505b841561120a57611802600183612330565b915061180f600a866123c9565b61181a906030612304565b60f81b81838151811061182f5761182f61241f565b60200101906001600160f81b031916908160001a905350611851600a8661231c565b94506117f1565b60006001600160e01b031982166380ac58cd60e01b148061188957506001600160e01b03198216635b5e139f60e01b145b806104e457506301ffc9a760e01b6001600160e01b03198316146104e4565b600a5460ff16156118ee5760405162461bcd60e51b815260206004820152601060248201526f14185d5cd8589b194e881c185d5cd95960821b60448201526064016105f1565b610727838383611a39565b6119038383611af1565b611910600084848461192c565b6107275760405162461bcd60e51b81526004016105f1906121e5565b60006001600160a01b0384163b15611a2e57604051630a85bd0160e11b81526001600160a01b0385169063150b7a0290611970903390899088908890600401612195565b602060405180830381600087803b15801561198a57600080fd5b505af19250505080156119ba575060408051601f3d908101601f191682019092526119b79181019061206d565b60015b611a14573d8080156119e8576040519150601f19603f3d011682016040523d82523d6000602084013e6119ed565b606091505b508051611a0c5760405162461bcd60e51b81526004016105f1906121e5565b805181602001fd5b6001600160e01b031916630a85bd0160e11b14905061120a565b506001949350505050565b6001600160a01b038316611a9457611a8f81600880546000838152600960205260408120829055600182018355919091527ff3f7a9fe364faab93b216da50a3214154f22a0a2b415b23a84c8169e8b636ee30155565b611ab7565b816001600160a01b0316836001600160a01b031614611ab757611ab78382611c3f565b6001600160a01b038216611ace5761072781611cdc565b826001600160a01b0316826001600160a01b031614610727576107278282611d8b565b6001600160a01b038216611b475760405162461bcd60e51b815260206004820181905260248201527f4552433732313a206d696e7420746f20746865207a65726f206164647265737360448201526064016105f1565b6000818152600260205260409020546001600160a01b031615611bac5760405162461bcd60e51b815260206004820152601c60248201527f4552433732313a20746f6b656e20616c7265616479206d696e7465640000000060448201526064016105f1565b611bb8600083836118a8565b6001600160a01b0382166000908152600360205260408120805460019290611be1908490612304565b909155505060008181526002602052604080822080546001600160a01b0319166001600160a01b03861690811790915590518392907fddf252ad1be2c89b69c2b068fc378daa952ba7f163c4a11628f55a4df523b3ef908290a45050565b60006001611c4c84610bef565b611c569190612330565b600083815260076020526040902054909150808214611ca9576001600160a01b03841660009081526006602090815260408083208584528252808320548484528184208190558352600790915290208190555b5060009182526007602090815260408084208490556001600160a01b039094168352600681528383209183525290812055565b600854600090611cee90600190612330565b60008381526009602052604081205460088054939450909284908110611d1657611d1661241f565b906000526020600020015490508060088381548110611d3757611d3761241f565b6000918252602080832090910192909255828152600990915260408082208490558582528120556008805480611d6f57611d6f612409565b6001900381819060005260206000200160009055905550505050565b6000611d9683610bef565b6001600160a01b039093166000908152600660209081526040808320868452825280832085905593825260079052919091209190915550565b828054611ddb90612373565b90600052602060002090601f016020900481019282611dfd5760008555611e43565b82601f10611e165782800160ff19823516178555611e43565b82800160010185558215611e43579182015b82811115611e43578235825591602001919060010190611e28565b50611e4f929150611e53565b5090565b5b80821115611e4f5760008155600101611e54565b80356001600160a01b0381168114611e7f57600080fd5b919050565b600060208284031215611e9657600080fd5b610f1a82611e68565b60008060408385031215611eb257600080fd5b611ebb83611e68565b9150611ec960208401611e68565b90509250929050565b600080600060608486031215611ee757600080fd5b611ef084611e68565b9250611efe60208501611e68565b9150604084013590509250925092565b60008060008060808587031215611f2457600080fd5b611f2d85611e68565b9350611f3b60208601611e68565b925060408501359150606085013567ffffffffffffffff80821115611f5f57600080fd5b818701915087601f830112611f7357600080fd5b813581811115611f8557611f85612435565b604051601f8201601f19908116603f01168101908382118183101715611fad57611fad612435565b816040528281528a6020848701011115611fc657600080fd5b82602086016020830137600060208483010152809550505050505092959194509250565b60008060408385031215611ffd57600080fd5b61200683611e68565b91506020830135801515811461201b57600080fd5b809150509250929050565b6000806040838503121561203957600080fd5b61204283611e68565b946020939093013593505050565b60006020828403121561206257600080fd5b8135610f1a8161244b565b60006020828403121561207f57600080fd5b8151610f1a8161244b565b6000806020838503121561209d57600080fd5b823567ffffffffffffffff808211156120b557600080fd5b818501915085601f8301126120c957600080fd5b8135818111156120d857600080fd5b8660208285010111156120ea57600080fd5b60209290920196919550909350505050565b60006020828403121561210e57600080fd5b5035919050565b60008060006060848603121561212a57600080fd5b83359250611efe60208501611e68565b60008151808452612152816020860160208601612347565b601f01601f19169290920160200192915050565b60008351612178818460208801612347565b83519083019061218c818360208801612347565b01949350505050565b6001600160a01b03858116825284166020820152604081018390526080606082018190526000906121c89083018461213a565b9695505050505050565b602081526000610f1a602083018461213a565b60208082526032908201527f4552433732313a207472616e7366657220746f206e6f6e20455243373231526560408201527131b2b4bb32b91034b6b83632b6b2b73a32b960711b606082015260800190565b60208082526027908201527f416d614552433732313a2063616c6c6572206973206e6f742067656e657369736040820152661036b4b73a32b960c91b606082015260800190565b6020808252818101527f4f776e61626c653a2063616c6c6572206973206e6f7420746865206f776e6572604082015260600190565b60208082526031908201527f4552433732313a207472616e736665722063616c6c6572206973206e6f74206f6040820152701ddb995c881b9bdc88185c1c1c9bdd9959607a1b606082015260800190565b60008219821115612317576123176123dd565b500190565b60008261232b5761232b6123f3565b500490565b600082821015612342576123426123dd565b500390565b60005b8381101561236257818101518382015260200161234a565b83811115610e405750506000910152565b600181811c9082168061238757607f821691505b602082108114156123a857634e487b7160e01b600052602260045260246000fd5b50919050565b60006000198214156123c2576123c26123dd565b5060010190565b6000826123d8576123d86123f3565b500690565b634e487b7160e01b600052601160045260246000fd5b634e487b7160e01b600052601260045260246000fd5b634e487b7160e01b600052603160045260246000fd5b634e487b7160e01b600052603260045260246000fd5b634e487b7160e01b600052604160045260246000fd5b6001600160e01b0319811681146108c057600080fdfea2646970667358221220b11f891822509fefea892a23864f3db955487848237546ba9440637642bd936c64736f6c63430008060033",
  "linkReferences": {},
  "deployedLinkReferences": {}
}